{
  "abi": [
    {
      "inputs": [],
      "stateMutability": "nonpayable",
      "type": "constructor"
    },
    {
      "anonymous": false,
      "inputs": [
        {
          "indexed": true,
          "internalType": "address",
          "name": "owner",
          "type": "address"
        },
        {
          "indexed": true,
          "internalType": "address",
          "name": "approved",
          "type": "address"
        },
        {
          "indexed": true,
          "internalType": "uint256",
          "name": "tokenId",
          "type": "uint256"
        }
      ],
      "name": "Approval",
      "type": "event"
    },
    {
      "anonymous": false,
      "inputs": [
        {
          "indexed": true,
          "internalType": "address",
          "name": "owner",
          "type": "address"
        },
        {
          "indexed": true,
          "internalType": "address",
          "name": "operator",
          "type": "address"
        },
        {
          "indexed": false,
          "internalType": "bool",
          "name": "approved",
          "type": "bool"
        }
      ],
      "name": "ApprovalForAll",
      "type": "event"
    },
    {
      "anonymous": false,
      "inputs": [
        {
          "indexed": false,
          "internalType": "uint256",
          "name": "fileId",
          "type": "uint256"
        },
        {
          "indexed": false,
          "internalType": "string",
          "name": "fileName",
          "type": "string"
        },
        {
          "indexed": false,
          "internalType": "string",
          "name": "fileHash",
          "type": "string"
        },
        {
          "indexed": false,
          "internalType": "string",
          "name": "fileType",
          "type": "string"
        },
        {
          "indexed": false,
          "internalType": "uint256",
          "name": "fileSize",
          "type": "uint256"
        },
        {
          "indexed": false,
          "internalType": "address",
          "name": "minter",
          "type": "address"
        }
      ],
      "name": "FileMinted",
      "type": "event"
    },
    {
      "anonymous": false,
      "inputs": [
        {
          "indexed": true,
          "internalType": "address",
          "name": "from",
          "type": "address"
        },
        {
          "indexed": true,
          "internalType": "address",
          "name": "to",
          "type": "address"
        },
        {
          "indexed": true,
          "internalType": "uint256",
          "name": "tokenId",
          "type": "uint256"
        }
      ],
      "name": "Transfer",
      "type": "event"
    },
    {
      "inputs": [],
      "name": "admin",
      "outputs": [
        {
          "internalType": "address",
          "name": "",
          "type": "address"
        }
      ],
      "stateMutability": "view",
      "type": "function"
    },
    {
      "inputs": [
        {
          "internalType": "address",
          "name": "to",
          "type": "address"
        },
        {
          "internalType": "uint256",
          "name": "tokenId",
          "type": "uint256"
        }
      ],
      "name": "approve",
      "outputs": [],
      "stateMutability": "nonpayable",
      "type": "function"
    },
    {
      "inputs": [
        {
          "internalType": "address",
          "name": "owner",
          "type": "address"
        }
      ],
      "name": "balanceOf",
      "outputs": [
        {
          "internalType": "uint256",
          "name": "",
          "type": "uint256"
        }
      ],
      "stateMutability": "view",
      "type": "function"
    },
    {
      "inputs": [
        {
          "internalType": "uint256",
          "name": "tokenId",
          "type": "uint256"
        }
      ],
      "name": "getApproved",
      "outputs": [
        {
          "internalType": "address",
          "name": "",
          "type": "address"
        }
      ],
      "stateMutability": "view",
      "type": "function"
    },
    {
      "inputs": [
        {
          "internalType": "address",
          "name": "owner",
          "type": "address"
        },
        {
          "internalType": "address",
          "name": "operator",
          "type": "address"
        }
      ],
      "name": "isApprovedForAll",
      "outputs": [
        {
          "internalType": "bool",
          "name": "",
          "type": "bool"
        }
      ],
      "stateMutability": "view",
      "type": "function"
    },
    {
      "inputs": [
        {
          "internalType": "string",
          "name": "_fileName",
          "type": "string"
        },
        {
          "internalType": "string",
          "name": "_fileHash",
          "type": "string"
        },
        {
          "internalType": "string",
          "name": "_fileType",
          "type": "string"
        },
        {
          "internalType": "uint256",
          "name": "_fileSize",
          "type": "uint256"
        }
      ],
      "name": "mint",
      "outputs": [],
      "stateMutability": "nonpayable",
      "type": "function"
    },
    {
      "inputs": [],
      "name": "name",
      "outputs": [
        {
          "internalType": "string",
          "name": "",
          "type": "string"
        }
      ],
      "stateMutability": "view",
      "type": "function"
    },
    {
      "inputs": [],
      "name": "nftCount",
      "outputs": [
        {
          "internalType": "uint256",
          "name": "",
          "type": "uint256"
        }
      ],
      "stateMutability": "view",
      "type": "function"
    },
    {
      "inputs": [
        {
          "internalType": "uint256",
          "name": "",
          "type": "uint256"
        }
      ],
      "name": "nfts",
      "outputs": [
        {
          "internalType": "uint256",
          "name": "fileId",
          "type": "uint256"
        },
        {
          "internalType": "string",
          "name": "fileName",
          "type": "string"
        },
        {
          "internalType": "string",
          "name": "fileHash",
          "type": "string"
        },
        {
          "internalType": "string",
          "name": "fileType",
          "type": "string"
        },
        {
          "internalType": "uint256",
          "name": "fileSize",
          "type": "uint256"
        },
        {
          "internalType": "address",
          "name": "minter",
          "type": "address"
        }
      ],
      "stateMutability": "view",
      "type": "function"
    },
    {
      "inputs": [
        {
          "internalType": "uint256",
          "name": "tokenId",
          "type": "uint256"
        }
      ],
      "name": "ownerOf",
      "outputs": [
        {
          "internalType": "address",
          "name": "",
          "type": "address"
        }
      ],
      "stateMutability": "view",
      "type": "function"
    },
    {
      "inputs": [
        {
          "internalType": "address",
          "name": "from",
          "type": "address"
        },
        {
          "internalType": "address",
          "name": "to",
          "type": "address"
        },
        {
          "internalType": "uint256",
          "name": "tokenId",
          "type": "uint256"
        }
      ],
      "name": "safeTransferFrom",
      "outputs": [],
      "stateMutability": "nonpayable",
      "type": "function"
    },
    {
      "inputs": [
        {
          "internalType": "address",
          "name": "from",
          "type": "address"
        },
        {
          "internalType": "address",
          "name": "to",
          "type": "address"
        },
        {
          "internalType": "uint256",
          "name": "tokenId",
          "type": "uint256"
        },
        {
          "internalType": "bytes",
          "name": "data",
          "type": "bytes"
        }
      ],
      "name": "safeTransferFrom",
      "outputs": [],
      "stateMutability": "nonpayable",
      "type": "function"
    },
    {
      "inputs": [
        {
          "internalType": "address",
          "name": "operator",
          "type": "address"
        },
        {
          "internalType": "bool",
          "name": "approved",
          "type": "bool"
        }
      ],
      "name": "setApprovalForAll",
      "outputs": [],
      "stateMutability": "nonpayable",
      "type": "function"
    },
    {
      "inputs": [
        {
          "internalType": "bytes4",
          "name": "interfaceId",
          "type": "bytes4"
        }
      ],
      "name": "supportsInterface",
      "outputs": [
        {
          "internalType": "bool",
          "name": "",
          "type": "bool"
        }
      ],
      "stateMutability": "view",
      "type": "function"
    },
    {
      "inputs": [],
      "name": "symbol",
      "outputs": [
        {
          "internalType": "string",
          "name": "",
          "type": "string"
        }
      ],
      "stateMutability": "view",
      "type": "function"
    },
    {
      "inputs": [
        {
          "internalType": "uint256",
          "name": "index",
          "type": "uint256"
        }
      ],
      "name": "tokenByIndex",
      "outputs": [
        {
          "internalType": "uint256",
          "name": "",
          "type": "uint256"
        }
      ],
      "stateMutability": "view",
      "type": "function"
    },
    {
      "inputs": [
        {
          "internalType": "address",
          "name": "owner",
          "type": "address"
        },
        {
          "internalType": "uint256",
          "name": "index",
          "type": "uint256"
        }
      ],
      "name": "tokenOfOwnerByIndex",
      "outputs": [
        {
          "internalType": "uint256",
          "name": "",
          "type": "uint256"
        }
      ],
      "stateMutability": "view",
      "type": "function"
    },
    {
      "inputs": [
        {
          "internalType": "uint256",
          "name": "tokenId",
          "type": "uint256"
        }
      ],
      "name": "tokenURI",
      "outputs": [
        {
          "internalType": "string",
          "name": "",
          "type": "string"
        }
      ],
      "stateMutability": "view",
      "type": "function"
    },
    {
      "inputs": [],
      "name": "totalSupply",
      "outputs": [
        {
          "internalType": "uint256",
          "name": "",
          "type": "uint256"
        }
      ],
      "stateMutability": "view",
      "type": "function"
    },
    {
      "inputs": [
        {
          "internalType": "address",
          "name": "from",
          "type": "address"
        },
        {
          "internalType": "address",
          "name": "to",
          "type": "address"
        },
        {
          "internalType": "uint256",
          "name": "tokenId",
          "type": "uint256"
        }
      ],
      "name": "transferFrom",
      "outputs": [],
      "stateMutability": "nonpayable",
      "type": "function"
    }
  ],
  "bytecode": {
    "object": "0x60806040526000600b553480156200001657600080fd5b506040518060400160405280600381526020016213999d60ea1b8152506040518060400160405280600381526020016213919560ea1b81525081600090805190602001906200006792919062000098565b5080516200007d90600190602084019062000098565b5050600e80546001600160a01b03191633179055506200017b565b828054620000a6906200013e565b90600052602060002090601f016020900481019282620000ca576000855562000115565b82601f10620000e557805160ff191683800117855562000115565b8280016001018555821562000115579182015b8281111562000115578251825591602001919060010190620000f8565b506200012392915062000127565b5090565b5b8082111562000123576000815560010162000128565b600181811c908216806200015357607f821691505b602082108114156200017557634e487b7160e01b600052602260045260246000fd5b50919050565b612248806200018b6000396000f3fe608060405234801561001057600080fd5b506004361061012c5760003560e01c806342842e0e116100ad578063a22cb46511610071578063a22cb4651461027f578063b88d4fde14610292578063c87b56dd146102a5578063e985e9c5146102b8578063f851a440146102f457600080fd5b806342842e0e1461022b5780634f6ccce71461023e5780636352211e1461025157806370a082311461026457806395d89b411461027757600080fd5b806318160ddd116100f457806318160ddd146101c557806323b872dd146101cd578063265aa621146101e05780632f745c591461020557806331b6475c1461021857600080fd5b806301ffc9a71461013157806306fdde0314610159578063081812fc1461016e578063095ea7b3146101995780630af2c6ca146101ae575b600080fd5b61014461013f366004611e02565b610307565b60405190151581526020015b60405180910390f35b610161610318565b6040516101509190611f99565b61018161017c366004611ecc565b6103aa565b6040516001600160a01b039091168152602001610150565b6101ac6101a7366004611dd8565b6103d1565b005b6101b7600b5481565b604051908152602001610150565b6008546101b7565b6101ac6101db366004611ce4565b6104ec565b6101f36101ee366004611ecc565b61051d565b60405161015096959493929190612090565b6101b7610213366004611dd8565b610707565b6101ac610226366004611e3c565b61079d565b6101ac610239366004611ce4565b610cea565b6101b761024c366004611ecc565b610d05565b61018161025f366004611ecc565b610d98565b6101b7610272366004611c96565b610df8565b610161610e7e565b6101ac61028d366004611d9c565b610e8d565b6101ac6102a0366004611d20565b610e9c565b6101616102b3366004611ecc565b610ed4565b6101446102c6366004611cb1565b6001600160a01b03918216600090815260056020908152604080832093909416825291909152205460ff1690565b600e54610181906001600160a01b031681565b600061031282610f48565b92915050565b6060600080546103279061214e565b80601f01602080910402602001604051908101604052809291908181526020018280546103539061214e565b80156103a05780601f10610375576101008083540402835291602001916103a0565b820191906000526020600020905b81548152906001019060200180831161038357829003601f168201915b5050505050905090565b60006103b582610f6d565b506000908152600460205260409020546001600160a01b031690565b60006103dc82610d98565b9050806001600160a01b0316836001600160a01b0316141561044f5760405162461bcd60e51b815260206004820152602160248201527f4552433732313a20617070726f76616c20746f2063757272656e74206f776e656044820152603960f91b60648201526084015b60405180910390fd5b336001600160a01b038216148061046b575061046b81336102c6565b6104dd5760405162461bcd60e51b815260206004820152603d60248201527f4552433732313a20617070726f76652063616c6c6572206973206e6f7420746f60448201527f6b656e206f776e6572206f7220617070726f76656420666f7220616c6c0000006064820152608401610446565b6104e78383610fcf565b505050565b6104f6338261103d565b6105125760405162461bcd60e51b815260040161044690611fac565b6104e78383836110bc565b600a818154811061052d57600080fd5b600091825260209091206006909102018054600182018054919350906105529061214e565b80601f016020809104026020016040519081016040528092919081815260200182805461057e9061214e565b80156105cb5780601f106105a0576101008083540402835291602001916105cb565b820191906000526020600020905b8154815290600101906020018083116105ae57829003601f168201915b5050505050908060020180546105e09061214e565b80601f016020809104026020016040519081016040528092919081815260200182805461060c9061214e565b80156106595780601f1061062e57610100808354040283529160200191610659565b820191906000526020600020905b81548152906001019060200180831161063c57829003601f168201915b50505050509080600301805461066e9061214e565b80601f016020809104026020016040519081016040528092919081815260200182805461069a9061214e565b80156106e75780601f106106bc576101008083540402835291602001916106e7565b820191906000526020600020905b8154815290600101906020018083116106ca57829003601f168201915b5050505060048301546005909301549192916001600160a01b0316905086565b600061071283610df8565b82106107745760405162461bcd60e51b815260206004820152602b60248201527f455243373231456e756d657261626c653a206f776e657220696e646578206f7560448201526a74206f6620626f756e647360a81b6064820152608401610446565b506001600160a01b03919091166000908152600660209081526040808320938352929052205490565b81516020830120600e546001600160a01b031633146107eb5760405162461bcd60e51b815260206004820152600a60248201526937b7363c9030b236b4b760b11b6044820152606401610446565b600d856040516107fb9190611f11565b9081526040519081900360200190205460ff161561085b5760405162461bcd60e51b815260206004820152601860248201527f66696c65206e616d65206d75737420626520756e6971756500000000000000006044820152606401610446565b600c8460405161086b9190611f11565b9081526040519081900360200190205460ff16156108cb5760405162461bcd60e51b815260206004820152601860248201527f66696c652068617368206d75737420626520756e6971756500000000000000006044820152606401610446565b600085511161091c5760405162461bcd60e51b815260206004820152601b60248201527f66696c65206e616d65206d757374206e6f7420626520656d70747900000000006044820152606401610446565b600084511161096d5760405162461bcd60e51b815260206004820152601b60248201527f66696c652068617368206d757374206e6f7420626520656d70747900000000006044820152606401610446565b60008351116109be5760405162461bcd60e51b815260206004820152601b60248201527f66696c652074797065206d757374206e6f7420626520656d70747900000000006044820152606401610446565b60408051808201909152600a815269696d6167652f6a70656760b01b6020909101527fbe978b8513862d3ee3a219e08b8b40d1d2e93c4cf21ea544d100387a2fffceea811480610a4e5750604080518082019091526009815268696d6167652f706e6760b81b6020909101527facc26745c1c11e5b0829a5d3a9072d57c4c00bd726a37e99f4552ffffab1126181145b80610a9a575060408051808201909152600a81526934b6b0b3b297ba34b33360b11b6020909101527fbd912c40034f3c49590b959eac3e18be421b5e2b50a3756439423aaaf89c084481145b80610ae5575060408051808201909152600981526834b6b0b3b297b3b4b360b91b6020909101527f29841479dc0f5d01d1f29e654b687ed4f268ad9abb66be8d65b8064ec17b092881145b610aee57600080fd5b60008211610afb57600080fd5b600b8054906000610b0b83612189565b90915550506040805160c081018252600b548152602080820188815292820187905260608201869052608082018590523360a0830152600a805460018101825560009190915282517fc65a7bb8d6351c1cf70c95a316cc6a92839c986682d98bc35f958f4883f9d2a8600690920291820190815593518051939485949093610bb7937fc65a7bb8d6351c1cf70c95a316cc6a92839c986682d98bc35f958f4883f9d2a901920190611b4b565b5060408201518051610bd3916002840191602090910190611b4b565b5060608201518051610bef916003840191602090910190611b4b565b506080820151600482015560a090910151600590910180546001600160a01b0319166001600160a01b03909216919091179055600a54610c3c903390610c379060019061210b565b61122d565b6001600d87604051610c4e9190611f11565b908152604051908190036020018120805492151560ff1990931692909217909155600190600c90610c80908890611f11565b908152604051908190036020018120805492151560ff1990931692909217909155600b547f7592799155125936acd3dadd45ad8f1809b12dfea86734da537b76d6de76767a91610cda919089908990899089903390612090565b60405180910390a1505050505050565b6104e783838360405180602001604052806000815250610e9c565b6000610d1060085490565b8210610d735760405162461bcd60e51b815260206004820152602c60248201527f455243373231456e756d657261626c653a20676c6f62616c20696e646578206f60448201526b7574206f6620626f756e647360a01b6064820152608401610446565b60088281548110610d8657610d866121d0565b90600052602060002001549050919050565b6000818152600260205260408120546001600160a01b0316806103125760405162461bcd60e51b8152602060048201526018602482015277115490cdcc8c4e881a5b9d985b1a59081d1bdad95b88125160421b6044820152606401610446565b60006001600160a01b038216610e625760405162461bcd60e51b815260206004820152602960248201527f4552433732313a2061646472657373207a65726f206973206e6f7420612076616044820152683634b21037bbb732b960b91b6064820152608401610446565b506001600160a01b031660009081526003602052604090205490565b6060600180546103279061214e565b610e98338383611247565b5050565b610ea6338361103d565b610ec25760405162461bcd60e51b815260040161044690611fac565b610ece84848484611316565b50505050565b6060610edf82610f6d565b6000610ef660408051602081019091526000815290565b90506000815111610f165760405180602001604052806000815250610f41565b80610f2084611349565b604051602001610f31929190611f2d565b6040516020818303038152906040525b9392505050565b60006001600160e01b0319821663780e9d6360e01b14806103125750610312826113e6565b6000818152600260205260409020546001600160a01b0316610fcc5760405162461bcd60e51b8152602060048201526018602482015277115490cdcc8c4e881a5b9d985b1a59081d1bdad95b88125160421b6044820152606401610446565b50565b600081815260046020526040902080546001600160a01b0319166001600160a01b038416908117909155819061100482610d98565b6001600160a01b03167f8c5be1e5ebec7d5bd14f71427d1e84f3dd0314c0f7b2291e5b200ac8c7c3b92560405160405180910390a45050565b60008061104983610d98565b9050806001600160a01b0316846001600160a01b0316148061109057506001600160a01b0380821660009081526005602090815260408083209388168352929052205460ff165b806110b45750836001600160a01b03166110a9846103aa565b6001600160a01b0316145b949350505050565b826001600160a01b03166110cf82610d98565b6001600160a01b0316146110f55760405162461bcd60e51b81526004016104469061204b565b6001600160a01b0382166111575760405162461bcd60e51b8152602060048201526024808201527f4552433732313a207472616e7366657220746f20746865207a65726f206164646044820152637265737360e01b6064820152608401610446565b6111648383836001611436565b826001600160a01b031661117782610d98565b6001600160a01b03161461119d5760405162461bcd60e51b81526004016104469061204b565b600081815260046020908152604080832080546001600160a01b03199081169091556001600160a01b0387811680865260038552838620805460001901905590871680865283862080546001019055868652600290945282852080549092168417909155905184937fddf252ad1be2c89b69c2b068fc378daa952ba7f163c4a11628f55a4df523b3ef91a4505050565b610e98828260405180602001604052806000815250611442565b816001600160a01b0316836001600160a01b031614156112a95760405162461bcd60e51b815260206004820152601960248201527f4552433732313a20617070726f766520746f2063616c6c6572000000000000006044820152606401610446565b6001600160a01b03838116600081815260056020908152604080832094871680845294825291829020805460ff191686151590811790915591519182527f17307eab39ab6107e8899845ad3d59bd9653f200f220920489ca2b5937696c31910160405180910390a3505050565b6113218484846110bc565b61132d84848484611475565b610ece5760405162461bcd60e51b815260040161044690611ff9565b6060600061135683611582565b600101905060008167ffffffffffffffff811115611376576113766121e6565b6040519080825280601f01601f1916602001820160405280156113a0576020820181803683370190505b5090508181016020015b600019016f181899199a1a9b1b9c1cb0b131b232b360811b600a86061a8153600a85049450846113d9576113de565b6113aa565b509392505050565b60006001600160e01b031982166380ac58cd60e01b148061141757506001600160e01b03198216635b5e139f60e01b145b8061031257506301ffc9a760e01b6001600160e01b0319831614610312565b610ece8484848461165a565b61144c838361179a565b6114596000848484611475565b6104e75760405162461bcd60e51b815260040161044690611ff9565b60006001600160a01b0384163b1561157757604051630a85bd0160e11b81526001600160a01b0385169063150b7a02906114b9903390899088908890600401611f5c565b602060405180830381600087803b1580156114d357600080fd5b505af1925050508015611503575060408051601f3d908101601f1916820190925261150091810190611e1f565b60015b61155d573d808015611531576040519150601f19603f3d011682016040523d82523d6000602084013e611536565b606091505b5080516115555760405162461bcd60e51b815260040161044690611ff9565b805181602001fd5b6001600160e01b031916630a85bd0160e11b1490506110b4565b506001949350505050565b60008072184f03e93ff9f4daa797ed6e38ed64bf6a1f0160401b83106115c15772184f03e93ff9f4daa797ed6e38ed64bf6a1f0160401b830492506040015b6d04ee2d6d415b85acef810000000083106115ed576d04ee2d6d415b85acef8100000000830492506020015b662386f26fc10000831061160b57662386f26fc10000830492506010015b6305f5e1008310611623576305f5e100830492506008015b612710831061163757612710830492506004015b60648310611649576064830492506002015b600a83106103125760010192915050565b61166684848484611933565b60018111156116d55760405162461bcd60e51b815260206004820152603560248201527f455243373231456e756d657261626c653a20636f6e7365637574697665207472604482015274185b9cd9995c9cc81b9bdd081cdd5c1c1bdc9d1959605a1b6064820152608401610446565b816001600160a01b0385166117315761172c81600880546000838152600960205260408120829055600182018355919091527ff3f7a9fe364faab93b216da50a3214154f22a0a2b415b23a84c8169e8b636ee30155565b611754565b836001600160a01b0316856001600160a01b0316146117545761175485826119bb565b6001600160a01b0384166117705761176b81611a58565b611793565b846001600160a01b0316846001600160a01b031614611793576117938482611b07565b5050505050565b6001600160a01b0382166117f05760405162461bcd60e51b815260206004820181905260248201527f4552433732313a206d696e7420746f20746865207a65726f20616464726573736044820152606401610446565b6000818152600260205260409020546001600160a01b0316156118555760405162461bcd60e51b815260206004820152601c60248201527f4552433732313a20746f6b656e20616c7265616479206d696e746564000000006044820152606401610446565b611863600083836001611436565b6000818152600260205260409020546001600160a01b0316156118c85760405162461bcd60e51b815260206004820152601c60248201527f4552433732313a20746f6b656e20616c7265616479206d696e746564000000006044820152606401610446565b6001600160a01b038216600081815260036020908152604080832080546001019055848352600290915280822080546001600160a01b0319168417905551839291907fddf252ad1be2c89b69c2b068fc378daa952ba7f163c4a11628f55a4df523b3ef908290a45050565b6001811115610ece576001600160a01b03841615611979576001600160a01b0384166000908152600360205260408120805483929061197390849061210b565b90915550505b6001600160a01b03831615610ece576001600160a01b038316600090815260036020526040812080548392906119b09084906120f3565b909155505050505050565b600060016119c884610df8565b6119d2919061210b565b600083815260076020526040902054909150808214611a25576001600160a01b03841660009081526006602090815260408083208584528252808320548484528184208190558352600790915290208190555b5060009182526007602090815260408084208490556001600160a01b039094168352600681528383209183525290812055565b600854600090611a6a9060019061210b565b60008381526009602052604081205460088054939450909284908110611a9257611a926121d0565b906000526020600020015490508060088381548110611ab357611ab36121d0565b6000918252602080832090910192909255828152600990915260408082208490558582528120556008805480611aeb57611aeb6121ba565b6001900381819060005260206000200160009055905550505050565b6000611b1283610df8565b6001600160a01b039093166000908152600660209081526040808320868452825280832085905593825260079052919091209190915550565b828054611b579061214e565b90600052602060002090601f016020900481019282611b795760008555611bbf565b82601f10611b9257805160ff1916838001178555611bbf565b82800160010185558215611bbf579182015b82811115611bbf578251825591602001919060010190611ba4565b50611bcb929150611bcf565b5090565b5b80821115611bcb5760008155600101611bd0565b600067ffffffffffffffff80841115611bff57611bff6121e6565b604051601f8501601f19908116603f01168101908282118183101715611c2757611c276121e6565b81604052809350858152868686011115611c4057600080fd5b858560208301376000602087830101525050509392505050565b80356001600160a01b0381168114611c7157600080fd5b919050565b600082601f830112611c8757600080fd5b610f4183833560208501611be4565b600060208284031215611ca857600080fd5b610f4182611c5a565b60008060408385031215611cc457600080fd5b611ccd83611c5a565b9150611cdb60208401611c5a565b90509250929050565b600080600060608486031215611cf957600080fd5b611d0284611c5a565b9250611d1060208501611c5a565b9150604084013590509250925092565b60008060008060808587031215611d3657600080fd5b611d3f85611c5a565b9350611d4d60208601611c5a565b925060408501359150606085013567ffffffffffffffff811115611d7057600080fd5b8501601f81018713611d8157600080fd5b611d9087823560208401611be4565b91505092959194509250565b60008060408385031215611daf57600080fd5b611db883611c5a565b915060208301358015158114611dcd57600080fd5b809150509250929050565b60008060408385031215611deb57600080fd5b611df483611c5a565b946020939093013593505050565b600060208284031215611e1457600080fd5b8135610f41816121fc565b600060208284031215611e3157600080fd5b8151610f41816121fc565b60008060008060808587031215611e5257600080fd5b843567ffffffffffffffff80821115611e6a57600080fd5b611e7688838901611c76565b95506020870135915080821115611e8c57600080fd5b611e9888838901611c76565b94506040870135915080821115611eae57600080fd5b50611ebb87828801611c76565b949793965093946060013593505050565b600060208284031215611ede57600080fd5b5035919050565b60008151808452611efd816020860160208601612122565b601f01601f19169290920160200192915050565b60008251611f23818460208701612122565b9190910192915050565b60008351611f3f818460208801612122565b835190830190611f53818360208801612122565b01949350505050565b6001600160a01b0385811682528416602082015260408101839052608060608201819052600090611f8f90830184611ee5565b9695505050505050565b602081526000610f416020830184611ee5565b6020808252602d908201527f4552433732313a2063616c6c6572206973206e6f7420746f6b656e206f776e6560408201526c1c881bdc88185c1c1c9bdd9959609a1b606082015260800190565b60208082526032908201527f4552433732313a207472616e7366657220746f206e6f6e20455243373231526560408201527131b2b4bb32b91034b6b83632b6b2b73a32b960711b606082015260800190565b60208082526025908201527f4552433732313a207472616e736665722066726f6d20696e636f72726563742060408201526437bbb732b960d91b606082015260800190565b86815260c0602082015260006120a960c0830188611ee5565b82810360408401526120bb8188611ee5565b905082810360608401526120cf8187611ee5565b608084019590955250506001600160a01b039190911660a090910152949350505050565b60008219821115612106576121066121a4565b500190565b60008282101561211d5761211d6121a4565b500390565b60005b8381101561213d578181015183820152602001612125565b83811115610ece5750506000910152565b600181811c9082168061216257607f821691505b6020821081141561218357634e487b7160e01b600052602260045260246000fd5b50919050565b600060001982141561219d5761219d6121a4565b5060010190565b634e487b7160e01b600052601160045260246000fd5b634e487b7160e01b600052603160045260246000fd5b634e487b7160e01b600052603260045260246000fd5b634e487b7160e01b600052604160045260246000fd5b6001600160e01b031981168114610fcc57600080fdfea2646970667358221220ad3beb413c1dca188980482cb059bb6ae5371df77f6e88b0478269e14a012e1964736f6c63430008070033",
    "linkReferences": {}
  },
  "methodIdentifiers": {
    "admin()": "f851a440",
    "approve(address,uint256)": "095ea7b3",
    "balanceOf(address)": "70a08231",
    "getApproved(uint256)": "081812fc",
    "isApprovedForAll(address,address)": "e985e9c5",
    "mint(string,string,string,uint256)": "31b6475c",
    "name()": "06fdde03",
    "nftCount()": "0af2c6ca",
    "nfts(uint256)": "265aa621",
    "ownerOf(uint256)": "6352211e",
    "safeTransferFrom(address,address,uint256)": "42842e0e",
    "safeTransferFrom(address,address,uint256,bytes)": "b88d4fde",
    "setApprovalForAll(address,bool)": "a22cb465",
    "supportsInterface(bytes4)": "01ffc9a7",
    "symbol()": "95d89b41",
    "tokenByIndex(uint256)": "4f6ccce7",
    "tokenOfOwnerByIndex(address,uint256)": "2f745c59",
    "tokenURI(uint256)": "c87b56dd",
    "totalSupply()": "18160ddd",
    "transferFrom(address,address,uint256)": "23b872dd"
  },
  "id": 37
}